:10016D00C0F9A4B0999282F880908883C6A1868E3A
:100143008F148E138D128C11781174FF120125EC0C
:060153004D4E4F70F32237
:0D000E00D2B5C2B3C2B4C2B2D2B0C2B122E8
:0D017D00C2B5D2B3C2B4D2B2C2B0C2B12278
:07000300C2B5C2B3D2B42262
:0701A200C2B2C2B0D2B122CB
:10007C00E4FBE50F75F00A84F50AE50F75F00A84C8
:10008C0085F00BE51075F00A84F50CE51075F00A97
:10009C008485F00D75A001E5A064106024AF030BFE
:1000AC00740A2FF8E690016D93F5807F147E007D25
:1000BC00007C001201437580FFE5A025E0F5A080CF
:0100CC00D65D
:0100CD002210
:10015900758911758C3C758AB0D2AFD28ED2ABD26B
:040169008CD2A92269
:0C018A0075101F750F22E4F509F508221E
:1000CE0012018A120159E5081460121460141460AA
:1000DE00161460182404701712000E8012120003FA
:1000EE00800D12017D80081201A2800312018A1276
:0400FE00007C80D230
:03000B0002001ED2
:10001E00C0E0C0D0758C3C758AB00509E509641442
:10002E007047F509D51020E508700775100305080F
:10003E008015E508B4010A751022750F1F0508809A
:10004E000675101F750800D50F1FE508B402077559
:10005E000F0305088013E508B40308750F22751009
:0E006E001F8003750F1F750800D0D0D0E03240
:03001B00020102DD
:1001020020900DC28C7580FF12000E3090FDD28CB3
:1001120020910DC28C7580FF12017D3091FDD28C31
:0101220032AA
:0300000002019664
:0C019600787FE4F6D8FD7581140200CEDD
:100123007401FF3395E0FEFDFC080808E6CF2FF6C7
:1001330018E6CE3EF618E6CD3DF618E6CC3CF622A0
:00000001FF
